:100000000C94D5000C94FD000C94FD000C94FD00A4
:100010000C94FD000C94FD000C94FD000C94FD006C
:100020000C94FD000C94FD000C9447050C94B6054F
:100030000C94FD000C94FD000C94FD000C94FD004C
:100040000C94FD000C94FD000C94FD000C94FD003C
:100050000C94FD000C94FD000C94FD000C94FD0428
:100060000C94FD000C94FD000C94FD000C94FD001C
:100070000C94FD000C94FD000C94FD000C94FD000C
:100080000C94FD000C94FD000C94FD000C94FD00FC
:100090000C94FD000C94FD000C94FD000C94FD00EC
:1000A0000C94FD000C94FD000C94FD00080B000264
:1000B0000202000009040000010202000005240001
:1000C0001001052401010104240206052406000193
:1000D0000705810310004009040100020A00000026
:1000E00007050202400000070583024000000403E8
:1000F000090412010002EF02014041233680000191
:100100000102030141726475696E6F204C4C43001B
:1001100041726475696E6F204C656F6E6172646FB9
:1001200000000000002300260029002C002F000002
:10013000000000240027002A002D003000000000ED
:1001400000250028002B002E0031000404040404C4
:10015000030405020202020403020202020606066A
:100160000606060404020202040404080201104008
:100170008040102040804080080204018040201010
:100180000201108010204040200000000200090FF2
:100190000000030401000C0000000000000000004B
:1001A00000000000000000002D0811241FBECFEF4A
:1001B000DAE0DEBFCDBF14E0A0E0B1E0E2EBFDE1AC
:1001C00002C005900D92A832B107D9F725E0A8E248
:1001D000B4E001C01D92AE37B207E1F710E0C5ED03
:1001E000D0E004C02197FE010E94D80BC43DD10786
:1001F000C9F70E947B080C94D70E0C9400000F9353
:100200001F93CF93DF93BC01E9EAF4E090E080E034
:1002100005E011E0DB014D91BD01442311F1803275
:100220009105F9F04002A0011124DF0130E020E047
:100230002530310561F414862F5F3F4F119626302B
:100240003105B1F71093AF0401963696E3CFE9017B
:10025000C40FD51FCD58DE4FC8811796CC93179782
:10026000EBCF9093AE048093AD04DF91CF911F91BB
:100270000F910895FC0180914E04882311F13FB73E
:10028000F89482E08093E9002091F200822F90E0C0
:100290001816190614F481E090E0882339F02898A4
:1002A00044E640934D044091F1004083222339F00D
:1002B0002091F200211103C02BE62093E8003FBFFC
:1002C00008958FEF9FEF08952FB7F89483E0809300
:1002D000E9009091E800892F807295FF04C0909109
:1002E000F20080E4891B2FBF08958091450481119D
:1002F0000DC082E08093410484E080934204109218
:1003000044041092430481E08093450481E494E026
:100310000895282F30E0F901E757FE4F9491F90135
:10032000E659FE4F8491255B3E4FF901249122232B
:1003300009F430C09923E9F091509F30D0F4E92FAF
:10034000F0E0EB55FE4F0C94D80BD301D701B4016C
:10035000CB01CF01B901B901B901DA01E001E40132
:10036000E801EE01B901F201909180009F7790932E
:100370008000E22FF0E0EE0FFF1FE35CFE4FA5913F
:10038000B4919FB7F894EC91611132C080958E239F
:100390008C939FBF0895909180009F7DE8CF9091AE
:1003A0008000977FE4CF94B59F7794BDE2CF94B55A
:1003B0009F7DFBCF909190009F7790939000D9CF35
:1003C000909190009F7DF9CF90919000977FF5CF0D
:1003D0009091C0009F779093C000CBCF9091C000C8
:1003E0009F7DF9CF9091C200977F9093C200C1CFBB
:1003F0008E2BCECFCF93DF9390E0FC01E659FE4FDA
:100400002491855B9E4FFC0184918823D1F090E07C
:10041000880F991FFC01E15DFE4FA591B491FC018D
:10042000E35CFE4FC591D49161110EC09FB7F89463
:100430008C91E22FE0958E238C932881E223E88330
:100440009FBFDF91CF9108958FB7F894EC91E22B85
:10045000EC938FBFF6CF3FB7F89480913D04909115
:100460003E04A0913F04B091400426B5A89B05C06E
:100470002F3F19F00196A11DB11D3FBFBA2FA92F23
:10048000982F8827BC01CD01620F711D811D911D20
:1004900042E0660F771F881F991F4A95D1F708958C
:1004A000CF92DF92EF92FF920E942B026B017C01B0
:1004B0000E942B026C197D098E099F09683E7340CA
:1004C00081059105A8F3FF90EF90DF90CF900895FC
:1004D00040912A0450912B04209128043091290442
:1004E00042175307B4F49091E8009570E1F39091AE
:1004F000E80092FD19C08093F10080912A04909148
:100500002B0401968F739927892B19F48EEF809312
:10051000E80080912A0490912B04019690932B047B
:1005200080932A0481E0089580E00895EF92FF927D
:100530000F931F93CF93DF93F82E192FE62E042FDE
:1005400081E0860F880F0E94680283E00E946802A3
:10055000CF2DD12FEC0EFD2EF11CCE15DF05B9F0FD
:1005600007FF13C0FE0184910E946802182F80E0EB
:100570000E946802812321968111EFCFDF91CF91F4
:100580001F910F91FF90EF9008958881EDCF81E04A
:10059000F5CFDF92EF92FF920F931F93CF93DF93EC
:1005A000D82E8A01EB017B01E40EF51ECE15DF0586
:1005B00059F0D7FE12C0FE0184910E946802219674
:1005C0008111F4CF0FEF1FEFC801DF91CF911F9181
:1005D0000F91FF90EF90DF9008958881EECF0F93F9
:1005E0001F93CF93DF931F92CDB7DEB782E089834D
:1005F00042E450E06CEA70E080E80E94C9020E9488
:100600007501DC0112960D911C910115110589F0FF
:10061000D801ED91FC910280F381E02DBE016F5F66
:100620007F4FC801099597FD04C0F8010085118529
:10063000ECCF89810F90DF91CF911F910F91089599
:10064000615030F02091F100FC0120830196F8CF39
:10065000289884E680934D0408958F929F92AF92DC
:10066000BF92CF92DF92EF92FF920F931F93CF939F
:10067000DF936C017B018A0180910B01882309F4CF
:1006800058C080914E04882309F453C080912E04F1
:1006900080FF05C08091E00082608093E000E80167
:1006A000B12C8AEFA82E93E0892E2AE3922E209770
:1006B00011F4BB20B9F10E946401811106C0AA9413
:1006C000AA20B9F10E945002F2CF8C171D0611F03A
:1006D0000CF08C2F9FB7F8948092E9002091E800ED
:1006E00025FD02C09FBFE3CF282F30E0C21BD30BF4
:1006F000F701815020F041914093F100FACFE20ED2
:10070000F31EBB2021F09092E800B12CEBCF80913A
:10071000E80085FDE7CF9092E800BB24B3942097D2
:1007200009F3F3CF5D9884E680932D04101611062B
:100730003CF081E090E0F6019383828310E000E0DA
:10074000C801DF91CF911F910F91FF90EF90DF9043
:10075000CF90BF90AF909F908F900895CF93DF93ED
:100760001F92CDB7DEB76983DC01ED91FC91028069
:10077000F381E02D41E050E0BE016F5F7F4F0995AE
:100780000F90DF91CF91089583E08093E9008091ED
:10079000F200882319F08AE38093E80008950E940C
:1007A000640190E00895CF93DF931F92CDB7DEB739
:1007B000FC018485958597FD08C02FEF3FEF3587B5
:1007C00024870F90DF91CF910895CE0101960E946A
:1007D0003A01019719F4898190E0F3CF8FEF9FEFF1
:1007E000F0CF0F931F93CF93DF931F92CDB7DEB758
:1007F0008C01FC018485958597FF0BC0CE01019685
:100800000E943A01019771F4898190E0F80195877F
:100810008487F801848595850F90DF91CF911F9192
:100820000F9108958FEF9FEFF1CFFC01848595859F
:1008300097FD0BC09FB7F89482E08093E900809108
:10084000F2009FBF90E0019608959FB7F89482E070
:100850008093E9008091F2009FBF90E00895FC0131
:1008600001900020E9F73197AF01481B590BBC01FB
:100870008FE494E00C942D038F929F92AF92BF92DD
:100880000F931F93CF93DF93CDB7DEB7A1970FB62A
:10089000F894DEBF0FBECDBF19A2423008F44AE083
:1008A0008E010F5D1F4F842E912CB12CA12CA50120
:1008B00094010E94B60BE62FB901CA01EA30F4F4A4
:1008C000E05DD801EE938D01232B242B252B79F7A6
:1008D00090E080E0109719F0CD010E942F04A196BE
:1008E0000FB6F894DEBF0FBECDBFDF91CF911F9141
:1008F0000F91BF90AF909F908F900895E95CE1CFEA
:10090000CF92DF92EF92FF92CF93DF936B017C0146
:100910006DE28FE494E00E94AE03EC016627772736
:10092000CB016C197D098E099F094AE00E943C04A5
:100930008C0F9D1FDF91CF91FF90EF90DF90CF90B4
:1009400008950F931F93CF93DF93082F162FD42F63
:10095000C8E06D2F6170802F0E948901D69561E0FB
:10096000812F0E94890160E0812F0E948901C1507E
:1009700081F7DF91CF911F910F910895CF92DF9270
:10098000EF92FF920F931F93CF93DF93EC017C01C3
:1009900086E0E80EF11C10E000E0CC24C394D12CDA
:1009A0002F98F70141917F016C818A810E94A104F7
:1009B000A601002E01C0440F0A94EAF76C818A81D7
:1009C0000E94A1042F9A0F5F1F4F0830110541F7B5
:1009D0002F9840E06C818A810E94A10441E06C81E3
:1009E0008A810E94A1042F9ADF91CF911F910F91CC
:1009F000FF90EF90DF90CF9008951F920F920FB667
:100A00000F9211242F933F938F939F93AF93BF9394
:100A10008091390490913A04A0913B04B0913C0438
:100A20003091380423E0230F2D3758F50196A11D8E
:100A3000B11D209338048093390490933A04A09315
:100A40003B04B0933C0480913D0490913E04A091FE
:100A50003F04B09140040196A11DB11D80933D0457
:100A600090933E04A0933F04B0934004BF91AF9194
:100A70009F918F913F912F910F900FBE0F901F90DC
:100A8000189526E8230F0296A11DB11DD2CF1F9203
:100A90000F920FB60F9211248F939F938091E100D4
:100AA0009091E100937F9093E10083FF0FC010923B
:100AB000E90091E09093EB001092EC0092E39093A8
:100AC000ED0010924E0498E09093F00082FF22C057
:100AD00093E09093E9009091F200992319F09AE342
:100AE0009093E80090912D04992341F090912D046A
:100AF000915090932D04911101C05D9A90914D04F5
:100B0000992341F090914D04915090934D0491118F
:100B100001C0289A84FF18C08091E2008E7E816017
:100B20008093E2008091E1008F7E8093E1008091CC
:100B30002E048E7E806180932E049F918F910F9062
:100B40000FBE0F901F90189580FFF7CF8091E200A5
:100B50008E7E80618093E2008091E1008E7E8093A2
:100B6000E10080912E048E7E8160E5CF1F920F926E
:100B70000FB60F921124CF92DF92EF92FF920F9354
:100B80001F932F933F934F935F936F937F938F9315
:100B90009F93AF93BF93EF93FF93CF93DF93CDB723
:100BA000DEB76C97DEBFCDBF1092E9008091E80000
:100BB00083FF25C068E0CE0145960E94200382EFA6
:100BC0008093E8008D8987FF39C09091E80090FFFD
:100BD000FCCF982F907609F034C19E894F89588DAB
:100BE0002F89F88C911131C0803861F580912F04E4
:100BF0008093F1001092F1008EEF8093E8006C96E4
:100C00000FB6F894DEBF0FBECDBFDF91CF91FF913D
:100C1000EF91BF91AF919F918F917F916F915F9174
:100C20004F913F912F911F910F91FF90EF90DF9087
:100C3000CF900F900FBE0F901F9018959EEF90933E
:100C4000E800C7CF1092F100D5CF913059F481114F
:100C5000D3CF4130510581F680912F048D7F809351
:100C60002F04CACF933049F48111C6CF41305105CA
:100C700019F680912F048260F2CF953041F4809173
:100C8000E80080FFFCCF20682093E300B5CF9630CA
:100C900009F0A9C00B8D1C8D22E01092E900109282
:100CA0002B0410922A04F2122EC0109229041092E2
:100CB00028040E94EF021F8299E09983FA8291E052
:100CC0009E8390EA98879AEF998720912A04309121
:100CD0002B04275F3F4F3C832B838D831092E900C9
:100CE00010922B0410922A041093290400932804D4
:100CF00049E050E0BE016F5F7F4F80E00E94C90273
:100D00000E94EF0279CF10932904009328040E94D7
:100D10007501DC0112960D911C910115110509F464
:100D200051C1D801ED91FC910480F581E02DBE0107
:100D30006B5E7F4FC8010995009709F03EC1F8012D
:100D400000851185EACFF3E0FF120EC08F8988235A
:100D500009F440C0823061F440E860E180E191E054
:100D60000E949602811148CF81E28093EB0047CF29
:100D7000813029F440E86BE084E091E0F1CF8330EA
:100D800099F70E947501DC011296ED90FC908E019E
:100D90000F5F1F4F6801E114F10479F0D701ED9165
:100DA000FC910680F781E02DB801C7010995080F75
:100DB000111DF701E084F184EECFD8011C92F601F9
:100DC00001900020E9F73197BF016C197D0940E0DF
:100DD000C601C6CF6EEE70E0FB01449150E080E8A2
:100DE0000E94C90209CF973009F4BECF983021F490
:100DF00081E08093F10000CF993009F0FDCE83703F
:100E000009F0B2CFEDE0F1E081E031E096E321912D
:100E1000222371F08093E9003093EB00DF011197FA
:100E20002C912093EC009093ED008F5F873079F741
:100E30008EE78093EA001092EA008F8980934E0437
:100E4000DBCE8B8D9C8D1092E90010922B041092BA
:100E50002A049093290480932804898D811192C0DB
:100E60008E899D89913A49F4813209F07DCF47E01E
:100E700050E064E071E080E0B3CF913209F074CFCC
:100E8000833269F48F89988DB0E0A0E080930001EF
:100E900090930101A0930201B0930301ADCE803283
:100EA00069F48091E80082FFFCCF67E084E091E084
:100EB0000E9420038BEF8093E8009ECE823209F0DF
:100EC0009BCE8F8980930B01EEEFFFE78591949184
:100ED0008B3F9C4D51F1E0E0F8E08091040190914E
:100EE0000501A0910601B0910701803B9440A10546
:100EF000B105F1F480910B0180FD1AC0EE3F8AE04C
:100F0000F80789F587E797E79183808380916000F0
:100F100080932C0488E19BE00FB6F894A895809309
:100F200060000FBE9093600067CEEEEFFAE0D5CF81
:100F3000808191818737974709F05ECEA89580918F
:100F4000600088618093600080912C048093600031
:100F5000EE3F2AE0F20789F08091FE0A9091FF0AA5
:100F60009183808349CE808191818737980751F2A0
:100F70009093FF0A8093FE0AC5CF1092FF0A109249
:100F8000FE0A3ACE0E947501DC0112960D911C9169
:100F90000115110509F4E8CED801ED91FC910190FD
:100FA000F081E02DBE016B5E7F4FC8010995811174
:100FB00023CEF80100851185EBCF181619060CF425
:100FC0001BCED2CEF1E0FF12BECE62EF70E004CFB6
:100FD000CF92DF92EF92FF920F931F93E82FF92F9A
:100FE00005C0015011092109310961F19081962351
:100FF0009417B9F305C0015011092109310911F104
:10100000908196239413F7CFC12CD12CE12CF12C95
:101010000AC08FEFC81AD80AE80AF80A0C151D058D
:101020002E053F0579F080818623841791F36C2D7E
:101030007D2D8E2D9F2D1F910F91FF90EF90DF90B2
:10104000CF90089560E070E080E090E01F910F91F4
:10105000FF90EF90DF90CF900895CF93DF93EFE470
:10106000F4E01382128288EE93E0A0E0B0E0848383
:101070009583A683B7838DEE93E0918380838FEF72
:101080009FEF95878487C0E7D5E080E190E09B8360
:101090008A838BE090E0998388838FE090E09D8342
:1010A0008C8361E08BE00E94FA0161E08FE00E9496
:1010B000FA0161E080E10E94FA011E821F82188617
:1010C00019861A861B861C861D86E9EAF4E0D18300
:1010D000C08313821282158214821682EFE9F4E033
:1010E00088E090E09183808384E090E09383828322
:1010F000DF91CF910895CF93DF93CDB7DEB7A0975F
:101100000FB6F894DEBF0FBECDBF789484B5826071
:1011100084BD84B5816084BD85B5826085BD85B59B
:10112000816085BD80916E00816080936E00109219
:101130008100809181008260809381008091810094
:101140008160809381008091800081608093800025
:1011500080919100826080939100809191008160E4
:1011600080939100809190008160809390008091A5
:10117000C10084608093C1008091C100826080932F
:10118000C1008091C10081608093C1008091C30043
:1011900081608093C3008091C00082608093C00012
:1011A0008091C20081608093C20080917A00846047
:1011B00080937A0080917A00826080937A00809197
:1011C0007A00816080937A0080917A0080688093B1
:1011D0007A0010924E0410922F0410922E048091E7
:1011E000D70081608093D70080EA8093D80089B5CA
:1011F000806189BD89B5826089BD09B400FEFDCFDB
:101200000E9450028091D8008F7C80618093D8002A
:101210008091E000807F8093E0008091E1008E7EED
:101220008093E1008DE08093E200559A209A8FEF41
:101230009FEF90935C0480935B0461E080919F0436
:101240000E94FA0160E08091A1040E94FA018BEFF4
:1012500093E00E94FF0093E0492E512C23E2622E7E
:10126000712C33E2E32E34E0F32E9E012F5F3F4FCB
:10127000690140E0242E40E0342E8FB7F89480902E
:10128000390490903A04A0903B04B0903C048FBF86
:101290008091340490913504A0913604B0913704C4
:1012A000A5019401281B390B4A0B5B0BDA01C9011C
:1012B000883E9340A105B10508F49DC08092340496
:1012C00090923504A0923604B092370460E0809189
:1012D0009F040E948901C2010197F1F761E08091AA
:1012E0009F040E948901C3010197F1F760E080919A
:1012F0009F040E9489018091A1049091A2049927E2
:10130000FC01E659FE4F6491FC01E55BFE4FE49160
:10131000F0E0EE0FFF1FEF5DFE4F8591949100E42A
:1013200012E42FE030E0462F0E94E80761157105B6
:101330008105910529F06F5F7F4F8F4F9F4F9F7001
:101340006093A3047093A4048093A5049093A604CF
:101350000E94A90A26E933E44BE05DE30E940D0BED
:1013600020E030E040E05FE30E940D0B0E94710A34
:101370007093A8046093A7048FEF93E00E942F045A
:101380006091A3047091A4048091A5049091A60497
:1013900097FF9FC00E9480048AE094E00E942F047F
:1013A0008DE094E00E942F046091A7047091A8043E
:1013B000072E000C880B990B97FF8FC00E948004AA
:1013C0008AE094E00E942F048091A8048F9380917A
:1013D000A7048F93FF92EF921F9240E24F93DF9208
:1013E000CF920E94F20BC6010E94FF000FB6F89444
:1013F000DEBF0FBECDBF8091300490913104A0912B
:101400003204B0913304A5019401281B390B4A0B17
:101410005B0BDA01C9018D97A105B10508F44EC037
:101420008092300490923104A0923204B09233043E
:101430008091AD049091AE0436E0389F5001399F01
:10144000B00C11248091AB049091AC040196B501CD
:101450000E94A20B4C019093AC048093AB04E091EA
:10146000A904F091AA0416821782108611861286AA
:101470001386148615868F0130E020E0C901880D9F
:10148000991DB5010E94A20BDC01A755BB4F179611
:10149000AC910A2E000CBB0BAD5EBE4F8C91D801F7
:1014A0001D968C932F5F3F4F015011092830310555
:1014B00029F71092AF04CF010E94BE0480E795E0A7
:1014C0000E94BE042114310409F4D7CE0E9400000A
:1014D000D4CE4AE00E943C045FCF4AE00E943C0424
:1014E0006FCF0E94780A6894B1110C94070B08958D
:1014F0000E94EC0A88F09F5798F0B92F9927B751AE
:10150000B0F0E1F0660F771F881F991F1AF0BA95A7
:10151000C9F714C0B13091F00E94060BB1E00895F4
:101520000C94060B672F782F8827B85F39F0B93FE6
:10153000CCF3869577956795B395D9F73EF490955A
:101540008095709561957F4F8F4F9F4F0895E894D8
:1015500009C097FB3EF490958095709561957F4FFB
:101560008F4F9F4F9923A9F0F92F96E9BB279395A9
:10157000F695879577956795B795F111F8CFFAF4B9
:10158000BB0F11F460FF1BC06F5F7F4F8F4F9F4FEA
:1015900016C0882311F096E911C0772321F09EE848
:1015A000872F762F05C0662371F096E8862F70E0AE
:1015B00060E02AF09A95660F771F881FDAF7880F88
:1015C0009695879597F9089557FD9058440F551FA4
:1015D00059F05F3F71F04795880F97FB991F61F0B5
:1015E0009F3F79F087950895121613061406551F2C
:1015F000F2CF4695F1DF08C0161617061806991F98
:10160000F1CF86957105610508940895E894BB278C
:1016100066277727CB0197F908950E94200B0C9439
:10162000910B0E94830B38F00E948A0B20F09523C7
:1016300011F00C947A0B0C94800B11240C94070B72
:101640000E94E40A70F3959FC1F3950F50E0551F77
:10165000629FF001729FBB27F00DB11D639FAA2707
:10166000F00DB11DAA1F649F6627B00DA11D661F56
:10167000829F2227B00DA11D621F739FB00DA11D77
:10168000621F839FA00D611D221F749F3327A00D31
:10169000611D231F849F600D211D822F762F6A2FCD
:1016A00011249F5750409AF0F1F088234AF0EE0F32
:1016B000FF1FBB1F661F771F881F91505040A9F75F
:1016C0009E3F510580F00C947A0B0C94070B5F3F02
:1016D000E4F3983ED4F3869577956795B795F7959B
:1016E000E7959F5FC1F7FE2B880F911D9695879513
:1016F00097F9089597F99F6780E870E060E0089592
:101700009FEF80EC089500240A9416161706180619
:101710000906089500240A941216130614060506F5
:101720000895092E0394000C11F4882352F0BB0F86
:1017300040F4BF2B11F460FF04C06F5F7F4F8F4FE9
:101740009F4F089597FB072E16F4009407D077FD5E
:1017500009D00E94DE0B07FC05D03EF490958195E0
:101760009F4F0895709561957F4F0895A1E21A2EBD
:10177000AA1BBB1BFD010DC0AA1FBB1FEE1FFF1F35
:10178000A217B307E407F50720F0A21BB30BE40B85
:10179000F50B661F771F881F991F1A9469F76095CC
:1017A0007095809590959B01AC01BD01CF01089586
:1017B000EE0FFF1F0590F491E02D0994AA1BBB1BAF
:1017C00051E107C0AA1FBB1FA617B70710F0A61B41
:1017D000B70B881F991F5A95A9F780959095BC0162
:1017E000CD010895AEE0B0E0E8EFFBE00C94AE0E62
:1017F0000D891E898F89988D26E02C831A83098391
:1018000097FF02C080E090E801979E838D83AE0130
:10181000455E5F4F698D7A8DCE0101960E94220C44
:101820004D815E8157FD0AC02F81388542175307CD
:101830000CF49A01020F131FF80110822E96E4E0B7
:101840000C94CA0EABE0B0E0E8E2FCE00C94A00E11
:101850007C013B018A01FC0117821682838181FF92
:10186000C8C1CE0101965C01F7019381F30193FD9C
:10187000859193FF81913F01882309F453C18532FB
:1018800039F493FD859193FF81913F01853229F4CD
:10189000B70190E00E94120EE7CF912C212C312C41
:1018A000FFE1F31538F08B3211F190F4803209F139
:1018B000833229F137FC3CC020ED280F2A3050F547
:1018C00036FE20C08AE0989E200D1124922E06C07C
:1018D0008D3291F0803371F7689430F8F30193FD05
:1018E000859193FF81913F018111DACF21C06894E6
:1018F00031F8689432F8F2CF689433F8EFCF6894F7
:1019000034F8ECCFEAE02E9E200D1124222E6894AC
:1019100035F8E4CF8E3229F436FC04C1689436F8E9
:10192000DDCF8C3619F4689437F8D8CF8836B1F209
:10193000982F9F7D95549330E0F08336A1F1833743
:10194000C1F1833509F063C02801F2E04F0E511C4C
:10195000F801C080D180692D70E036FC02C06FEFC5
:101960007FEFC6010E94FC0D4C01689437F882019C
:101970000AC00C5F1F4FFFE3F98388248394912CE6
:101980006501E89437F833FE2DC0522C8114910480
:1019900071F5552009F468CFB70180E290E00E940C
:1019A000120E5A94F6CFF801808189830E5F1F4F83
:1019B000E4CF2801F2E04F0E511CF801C080D18025
:1019C000692D70E036FC02C06FEF7FEFC6010E9408
:1019D000070E4C018201D5CFB70180E290E00E9452
:1019E000120E2A942814190409F0B0F7CECFF6018C
:1019F00037FC859137FE81916F01B70190E00E941D
:101A0000120E51105A94F1E08F1A9108BFCF84360C
:101A100019F0893609F077C0F80137FE6BC0608194
:101A20007181828193810C5F1F4FF32DFF763F2ED2
:101A300097FF09C090958095709561957F4F8F4F66
:101A40009F4F689437F82AE030E0A5010E94420ECB
:101A5000C82ECA188C2C432C36FE0CC0E89440F8D3
:101A6000C91440F434FE05C032FC03C0F32DFE7EE1
:101A70004F2E892C44FE95C0FE01EC0DF11D808196
:101A8000803309F087C0242D297E422E842D887052
:101A9000582E43FC95C040FE8FC09C2C821418F435
:101AA0002C0C922C981844FE91C0B70180E390E072
:101AB0000E94120E42FE09C088E790E041FE02C07B
:101AC00088E590E0B7010E94120EC91408F48AC09C
:101AD000CA94D12C9FEFC91AD90ACA0CDB1CF60193
:101AE00082916F01B70190E00E94120EAC14BD0408
:101AF000B1F74FCF60817181072E000C880B990BD5
:101B00000E5F1F4F92CFD32CE894D4F82AE030E038
:101B1000853739F1232D297FD22E8F3601F148F4F4
:101B20008835A9F0F701868197812B96E2E10C9424
:101B3000BC0E803749F08837A9F7D4FE02C06894FC
:101B4000D2F820E130E00DC06894D4F8F6CF34FE2E
:101B500003C0822F8660D82E20E132E002C028E048
:101B600030E0F801D7FE0FC06081718182819381DE
:101B70000C5F1F4FA5010E94420EC82ECA183D2CB3
:101B8000E89437F867CF6081718190E080E00E5F64
:101B90001F4FF0CF42FC02C0839478CF839483948C
:101BA00075CF842D867809F471CFF6CFB70180E226
:101BB00090E00E94120E83948214C0F3512C73CFD4
:101BC000522C5818821408F46ECFF8CF842D8678E2
:101BD00009F47BCF8BE241FE80E247FC8DE2B70146
:101BE00090E071CFB70180E390E00E94120E9A94CA
:101BF0006CCF8FEF9FEF99CFFC0105906150704043
:101C00000110D8F7809590958E0F9F1F0895FC01C5
:101C10006150704001900110D8F7809590958E0F1B
:101C20009F1F08950F931F93CF93DF93182F092FB2
:101C3000EB018B8181FD09C01FEF0FEF812F902FEA
:101C4000DF91CF911F910F91089582FF14C02E81D3
:101C50003F818C819D81281739073CF4E881F98107
:101C6000CF0101969983888310838E819F8101968D
:101C70009F838E83E3CFE885F985812F0995892B92
:101C8000A1F3DACFFA01AA27283051F1203181F1EE
:101C9000E8946F936E7F6E5F7F4F8F4F9F4FAF4F74
:101CA000B1E03ED0B4E03CD0670F781F891F9A1F87
:101CB000A11D680F791F8A1F911DA11D6A0F711D3B
:101CC000811D911DA11D20D009F468943F912AE047
:101CD000269F11243019305D3193DEF6CF0108952F
:101CE000462F4770405D4193B3E00FD0C9F7F6CF60
:101CF000462F4F70405D4A3318F0495D31FD405228
:101D0000419302D0A9F7EACFB4E0A69597958795BD
:101D100077956795BA95C9F700976105710508959C
:101D20009B01AC010A2E0694579547953795279548
:101D3000BA95C9F7620F731F841F951FA01D0895E0
:101D40002F923F924F925F926F927F928F929F92CB
:101D5000AF92BF92CF92DF92EF92FF920F931F93B9
:101D6000CF93DF93CDB7DEB7CA1BDB0B0FB6F8946A
:101D7000DEBF0FBECDBF09942A88398848885F84AA
:101D80006E847D848C849B84AA84B984C884DF801B
:101D9000EE80FD800C811B81AA81B981CE0FD11DFF
:101DA0000FB6F894DEBF0FBECDBFED010895F894D5
:021DB000FFCF63
:101DB200FFFFFFFF00E100000000000000C1808182
:101DC200000000008040C020A060E0109050D030A1
:101DD200B070F0088848C828A868E8189858D83819
:101DE200B878F8048444C424A464E4149454D43425
:101DF200B474F40C8C4CCC2CAC6CEC1C9C5CDC3CB9
:101E0200BC7CFC028242C222A262E2129252D23212
:101E1200B272F20A8A4ACA2AAA6AEA1A9A5ADA3AB8
:101E2200BA7AFA068646C626A666E6169656D636C4
:101E3200B676F60E8E4ECE2EAE6EEE1E9E5EDE3E58
:101E4200BE7EFE018141C121A161E1119151D131D9
:101E5200B171F1098949C929A969E9199959D93988
:101E6200B979F9058545C525A565E5159555D53594
:101E7200B575F50D8D4DCD2DAD6DED1D9D5DDD3D28
:101E8200BD7DFD038343C323A363E3139353D33382
:101E9200B373F30B8B4BCB2BAB6BEB1B9B5BDB3B28
:101EA200BB7BFB078747C727A767E7179757D73734
:101EB200B777F70F8F4FCF2FAF6FEF1F9F5FDF3FC8
:101EC200BF7FFF000000000000005F00000007006D
:101ED2000700147F147F14242A7F2A12C4C81026F4
:101EE2004636495522500005030000001C224100DD
:101EF2000041221C0014083E081408083E0808008D
:101F0200005030001010101010006060000020100F
:101F12000804023E5149453E00427F400042615161
:101F220049462141454B311814127F10274545453A
:101F3200393C4A4949300171090503364949493654
:101F4200064949291E0036360000005636000008B0
:101F52001422410014141414140041221408020122
:101F6200510906324959513E7E1111117E7F49496C
:101F720049363E414141227F4141221C7F49494924
:101F8200417F090909013E4149497A7F0808087FD2
:101F920000417F41002040413F017F081422417FE0
:101FA200404040407F020C027F7F0408107F3E4188
:101FB20041413E7F090909063E4151215E7F0919CF
:101FC2002946464949493101017F01013F404040CC
:101FD2003F1F2040201F3F4038403F6314081463D6
:101FE20007087008076151494543007F4141005588
:101FF2002A552A550041417F000402010204404053
:10200200404040000102040020545454787F484468
:1020120044383844444420384444487F3854545463
:1020220018087E0901020C5252523E7F08040478BD
:1020320000447D40002040443D007F1028440000C1
:10204200417F40007C041804787C080404783844FA
:102052004444387C14141408081414187C7C0804B2
:1020620004084854545420043F4440203C4040203B
:102072007C1C2040201C3C4030403C44281028441A
:102082000C5050503C4464544C44086C6A19080C7F
:102092001224120C7E7E7E7E7E00000000AE032D96
:1020A20003CF03C4031504D303F1032030200044FB
:1020B20075726174696F6E3A20000D0A0043616C9B
:1020C20063756C617465642044697374616E6365E1
:0820D2003A20002025642000E3
:00000001FF
